{"sourcePath":"/Users/xhkj/Documents/proj/gameproj/ETHDapp/dapp/contracts/Dividend.sol","abi":[{"inputs":[],"constant":true,"name":"OTHERBLOCK1","outputs":[{"type":"uint256","name":""}],"stateMutability":"view","payable":false,"signature":"0x05f951df","type":"function"},{"inputs":[],"constant":true,"name":"OTHERBLOCK2","outputs":[{"type":"uint256","name":""}],"stateMutability":"view","payable":false,"signature":"0x1a0460cd","type":"function"},{"inputs":[],"constant":true,"name":"globalUnit","outputs":[{"type":"uint256","name":"bigPool"},{"type":"uint256","name":"staticPool"},{"type":"uint256","name":"bigPoolCount"},{"type":"uint256","name":"smallPoolCount"}],"stateMutability":"view","payable":false,"signature":"0x1bfc2113","type":"function"},{"inputs":[],"constant":true,"name":"MINER3PERCENT","outputs":[{"type":"uint256","name":""}],"stateMutability":"view","payable":false,"signature":"0x1df33902","type":"function"},{"inputs":[],"constant":true,"name":"isRunning","outputs":[{"type":"bool","name":""}],"stateMutability":"view","payable":false,"signature":"0x2014e5d1","type":"function"},{"inputs":[{"type":"address","name":""}],"constant":true,"name":"globalMinerBalance","outputs":[{"type":"uint256","name":""}],"stateMutability":"view","payable":false,"signature":"0x2d0b41ef","type":"function"},{"inputs":[],"constant":true,"name":"decimals","outputs":[{"type":"uint256","name":""}],"stateMutability":"view","payable":false,"signature":"0x313ce567","type":"function"},{"inputs":[],"constant":true,"name":"isDebuging","outputs":[{"type":"bool","name":""}],"stateMutability":"view","payable":false,"signature":"0x3214c706","type":"function"},{"inputs":[{"type":"address","name":""}],"constant":true,"name":"workers","outputs":[{"type":"address","name":"owner"},{"type":"uint256","name":"createTime"},{"type":"uint256","name":"level"},{"type":"uint256","name":"times"},{"type":"uint256","name":"reqTime"},{"type":"bool","name":"exists"},{"type":"uint256","name":"release"},{"type":"uint256","name":"investAmount"}],"stateMutability":"view","payable":false,"signature":"0x4048a257","type":"function"},{"inputs":[],"constant":true,"name":"BIGBLOCK3","outputs":[{"type":"uint256","name":""}],"stateMutability":"view","payable":false,"signature":"0x5124077d","type":"function"},{"inputs":[],"constant":true,"name":"vip4Map","outputs":[{"type":"uint256","name":"size"}],"stateMutability":"view","payable":false,"signature":"0x64275029","type":"function"},{"inputs":[{"type":"address","name":""}],"constant":true,"name":"miners","outputs":[{"type":"address","name":"owner"},{"type":"uint256","name":"level"},{"type":"uint256","name":"createTime"},{"type":"uint256","name":"reqTime"}],"stateMutability":"view","payable":false,"signature":"0x648ec7b9","type":"function"},{"inputs":[],"constant":true,"name":"vipAddressList","outputs":[{"type":"uint256","name":"size"}],"stateMutability":"view","payable":false,"signature":"0x64dbdd9d","type":"function"},{"inputs":[],"constant":true,"name":"BIGBLOCK1","outputs":[{"type":"uint256","name":""}],"stateMutability":"view","payable":false,"signature":"0x7ab65dbc","type":"function"},{"inputs":[{"type":"uint256","name":""}],"constant":true,"name":"dialySmallPool","outputs":[{"type":"uint256","name":""}],"stateMutability":"view","payable":false,"signature":"0x80879ef3","type":"function"},{"inputs":[],"constant":true,"name":"minerAddressList","outputs":[{"type":"uint256","name":"size"}],"stateMutability":"view","payable":false,"signature":"0x8687355f","type":"function"},{"inputs":[],"constant":true,"name":"MINER2PERCENT","outputs":[{"type":"uint256","name":""}],"stateMutability":"view","payable":false,"signature":"0x88ad7eca","type":"function"},{"inputs":[],"constant":true,"name":"vip2Map","outputs":[{"type":"uint256","name":"size"}],"stateMutability":"view","payable":false,"signature":"0x8aeb3479","type":"function"},{"inputs":[{"type":"address","name":""}],"constant":true,"name":"stats","outputs":[{"type":"uint256","name":"allStatic"},{"type":"uint256","name":"allDynamic"},{"type":"uint256","name":"allSmallPool"},{"type":"uint256","name":"allBigPool"},{"type":"uint256","name":"allTeam"},{"type":"uint256","name":"allVIP1"},{"type":"uint256","name":"allVIP2"},{"type":"uint256","name":"allVIP3"}],"stateMutability":"view","payable":false,"signature":"0x8bcdcbf3","type":"function"},{"inputs":[],"constant":true,"name":"owner","outputs":[{"type":"address","name":""}],"stateMutability":"view","payable":false,"signature":"0x8da5cb5b","type":"function"},{"inputs":[],"constant":true,"name":"MINER1PERCENT","outputs":[{"type":"uint256","name":""}],"stateMutability":"view","payable":false,"signature":"0x90ca15b6","type":"function"},{"inputs":[],"constant":true,"name":"OTHERBLOCK3","outputs":[{"type":"uint256","name":""}],"stateMutability":"view","payable":false,"signature":"0x98d583f4","type":"function"},{"inputs":[],"constant":true,"name":"realseTime","outputs":[{"type":"uint256","name":""}],"stateMutability":"view","payable":false,"signature":"0xa063cc79","type":"function"},{"inputs":[],"constant":true,"name":"BIGBLOCK2","outputs":[{"type":"uint256","name":""}],"stateMutability":"view","payable":false,"signature":"0xa3c2c6e8","type":"function"},{"inputs":[],"constant":true,"name":"BIGBLOCK4","outputs":[{"type":"uint256","name":""}],"stateMutability":"view","payable":false,"signature":"0xac8cba8f","type":"function"},{"inputs":[{"type":"uint256","name":""}],"constant":true,"name":"dialySmallPoolInfo","outputs":[{"type":"uint256","name":"size"},{"type":"uint256","name":"day"}],"stateMutability":"view","payable":false,"signature":"0xb34b6e8a","type":"function"},{"inputs":[{"type":"address","name":""}],"constant":true,"name":"totalInvestMap","outputs":[{"type":"uint256","name":""}],"stateMutability":"view","payable":false,"signature":"0xb97e6113","type":"function"},{"inputs":[],"constant":true,"name":"selfaddr","outputs":[{"type":"address","name":""}],"stateMutability":"view","payable":false,"signature":"0xba752d4f","type":"function"},{"inputs":[{"type":"uint256","name":""}],"constant":true,"name":"dialyBigPool","outputs":[{"type":"uint256","name":""}],"stateMutability":"view","payable":false,"signature":"0xbbab2d9b","type":"function"},{"inputs":[],"constant":true,"name":"tokenaddr","outputs":[{"type":"address","name":""}],"stateMutability":"view","payable":false,"signature":"0xbce934a9","type":"function"},{"inputs":[],"constant":true,"name":"vip1Map","outputs":[{"type":"uint256","name":"size"}],"stateMutability":"view","payable":false,"signature":"0xbf164a53","type":"function"},{"inputs":[{"type":"uint256","name":""}],"constant":true,"name":"staticPercent","outputs":[{"type":"uint256","name":""}],"stateMutability":"view","payable":false,"signature":"0xcae554b3","type":"function"},{"inputs":[],"constant":true,"name":"vip3Map","outputs":[{"type":"uint256","name":"size"}],"stateMutability":"view","payable":false,"signature":"0xd5b977b6","type":"function"},{"inputs":[],"constant":true,"name":"creationTime","outputs":[{"type":"uint256","name":""}],"stateMutability":"view","payable":false,"signature":"0xd8270dce","type":"function"},{"inputs":[{"type":"address","name":""}],"constant":true,"name":"players","outputs":[{"type":"uint256","name":"balance"},{"type":"address","name":"parent"},{"type":"uint256","name":"childrenCount"},{"type":"address","name":"maxChild"},{"type":"uint256","name":"maxNodeInvest"},{"type":"uint256","name":"totalNodeInvest"},{"type":"uint256","name":"myInvest"},{"type":"uint256","name":"lastTotalNodeInvest"},{"type":"bool","name":"exists"},{"type":"address","name":"me"},{"type":"uint256","name":"dynamicAmount"},{"type":"uint256","name":"vipAmount"},{"type":"uint256","name":"miner1Amount"},{"type":"uint256","name":"miner2Amount"}],"stateMutability":"view","payable":false,"signature":"0xe2eb41ff","type":"function"},{"inputs":[],"constant":true,"name":"OTHERBLOCK4","outputs":[{"type":"uint256","name":""}],"stateMutability":"view","payable":false,"signature":"0xe37f75fa","type":"function"},{"stateMutability":"nonpayable","inputs":[],"signature":"constructor","type":"constructor","payable":false},{"stateMutability":"payable","payable":true,"type":"fallback"},{"inputs":[{"type":"address","name":"_addr"}],"constant":false,"name":"changeOwner","outputs":[],"stateMutability":"nonpayable","payable":false,"signature":"0xa6f9dae1","type":"function"},{"inputs":[{"type":"address","name":"_token"},{"type":"address","name":"_self"}],"constant":false,"name":"setAddr","outputs":[],"stateMutability":"nonpayable","payable":false,"signature":"0xebcb00e0","type":"function"},{"inputs":[{"type":"bool","name":"_isDebug"}],"constant":false,"name":"setDebug","outputs":[],"stateMutability":"nonpayable","payable":false,"signature":"0x0c2cb820","type":"function"},{"inputs":[{"type":"bool","name":"_running"}],"constant":false,"name":"setRunning","outputs":[],"stateMutability":"nonpayable","payable":false,"signature":"0xdfd200c5","type":"function"},{"inputs":[{"type":"uint256","name":"_timeStamp"}],"constant":true,"name":"getIndexOfDay","outputs":[{"type":"uint256","name":""}],"stateMutability":"view","payable":false,"signature":"0x8f62d4df","type":"function"},{"inputs":[],"constant":true,"name":"getIndexOfNow","outputs":[{"type":"uint256","name":""}],"stateMutability":"view","payable":false,"signature":"0xbf8d55e2","type":"function"},{"inputs":[],"constant":true,"name":"getNextDayElapsed","outputs":[{"type":"uint256","name":""}],"stateMutability":"view","payable":false,"signature":"0x9c2cfd89","type":"function"},{"inputs":[{"type":"uint256","name":"_index"},{"type":"uint256","name":"_count"}],"constant":false,"name":"setMinerConfig","outputs":[],"stateMutability":"nonpayable","payable":false,"signature":"0x36bcd5ec","type":"function"},{"inputs":[],"constant":true,"name":"getMinerConfig","outputs":[{"type":"uint256","name":"_miner1Count"},{"type":"uint256","name":"_miner2Count"},{"type":"uint256","name":"_miner3Count"}],"stateMutability":"view","payable":false,"signature":"0xcbfbeda4","type":"function"},{"inputs":[],"constant":true,"name":"getCurMinerCount","outputs":[{"type":"uint256","name":"_count1"},{"type":"uint256","name":"_count2"},{"type":"uint256","name":"_count3"}],"stateMutability":"view","payable":false,"signature":"0xe6282b10","type":"function"},{"inputs":[{"type":"uint256","name":"_index"},{"type":"uint256","name":"_from"},{"type":"uint256","name":"_to"},{"type":"uint256","name":"_times"}],"constant":false,"name":"setWorkerConfig","outputs":[],"stateMutability":"nonpayable","payable":false,"signature":"0x765aca82","type":"function"},{"inputs":[{"type":"uint256","name":"_index"}],"constant":true,"name":"getWorkerConfig","outputs":[{"type":"uint256","name":"_from"},{"type":"uint256","name":"_to"},{"type":"uint256","name":"_times"}],"stateMutability":"view","payable":false,"signature":"0x611deadf","type":"function"},{"inputs":[{"type":"address","name":"_addr"},{"type":"uint8","name":"_choice"},{"type":"uint256","name":"_value"}],"constant":false,"name":"withdraw","outputs":[],"stateMutability":"nonpayable","payable":false,"signature":"0x044641eb","type":"function"},{"inputs":[{"type":"uint256","name":"_lvl"},{"type":"uint256","name":"_block"},{"type":"uint256","name":"_other"}],"constant":false,"name":"setVIPConfig","outputs":[],"stateMutability":"nonpayable","payable":false,"signature":"0x3d6a75be","type":"function"},{"inputs":[],"constant":false,"name":"withdrawStatic","outputs":[{"type":"uint256","name":""}],"stateMutability":"nonpayable","payable":false,"signature":"0x3f19172a","type":"function"},{"inputs":[{"type":"address","name":"_addr"}],"constant":true,"name":"balanceOfStatic","outputs":[{"type":"uint256","name":""}],"stateMutability":"view","payable":false,"signature":"0x4e12ac40","type":"function"},{"inputs":[{"type":"address","name":"_addr"}],"constant":true,"name":"getMinerLevel","outputs":[{"type":"uint256","name":""}],"stateMutability":"view","payable":false,"signature":"0x9f35bc3e","type":"function"},{"inputs":[{"type":"address","name":"_addr"}],"constant":true,"name":"getVIP","outputs":[{"type":"uint8","name":""}],"stateMutability":"view","payable":false,"signature":"0x759e5ded","type":"function"},{"inputs":[{"type":"address","name":"_addr"}],"constant":true,"name":"isGlobalMiner","outputs":[{"type":"bool","name":""}],"stateMutability":"view","payable":false,"signature":"0x56e721cb","type":"function"},{"inputs":[],"constant":true,"name":"getTeamInfo","outputs":[{"type":"uint256","name":""},{"type":"uint256","name":""},{"type":"uint256","name":""},{"type":"uint256","name":""}],"stateMutability":"view","payable":false,"signature":"0x0c57455a","type":"function"},{"inputs":[{"type":"address","name":"_addr"},{"type":"uint8","name":"_choice"}],"constant":true,"name":"balanceOf","outputs":[{"type":"uint256","name":""}],"stateMutability":"view","payable":false,"signature":"0x67412045","type":"function"},{"inputs":[{"type":"address","name":"_addr"},{"type":"uint256","name":"_lvl"}],"constant":false,"name":"addMiner","outputs":[{"type":"bool","name":""}],"stateMutability":"nonpayable","payable":false,"signature":"0x90276dc7","type":"function"},{"inputs":[{"type":"address","name":"_addr"}],"constant":false,"name":"addGlobalMiner","outputs":[{"type":"bool","name":""}],"stateMutability":"nonpayable","payable":false,"signature":"0x87cc6f08","type":"function"},{"inputs":[{"type":"address","name":"_address"}],"constant":true,"name":"isWorkerOut","outputs":[{"type":"bool","name":""}],"stateMutability":"view","payable":false,"signature":"0xd0d89fa1","type":"function"},{"inputs":[{"type":"uint256","name":"_timestamp"},{"type":"uint256","name":"_percent"}],"constant":false,"name":"setDialyBonus","outputs":[],"stateMutability":"nonpayable","payable":false,"signature":"0x086e68bb","type":"function"},{"inputs":[{"type":"address","name":"_recipient"}],"constant":false,"name":"buy","outputs":[],"stateMutability":"payable","payable":true,"signature":"0xf088d547","type":"function"},{"inputs":[],"constant":false,"name":"kill","outputs":[],"stateMutability":"nonpayable","payable":false,"signature":"0x41c0e1b5","type":"function"}],"compiler":{"version":"0.5.0+commit.1d4f565a.Emscripten.clang","name":"solc"},"devdoc":{"methods":{}},"userdoc":{"methods":{}},"bytecode":"0x6080604052601260005568056bc75e2d631000006001908155681043561a88293000006002818155682b5e3af16b188000006003819055686c6b935b8bbd4000006004556005928355600655686194049f30f720000060075569010f0cf064dd59200000600855600992909255600a55600b5542620151808101600c556010556011805461ff001916905534801561009657600080fd5b50600d8054600160a060020a031916331790556005601755601460185560326019556011805460ff191690556149ee806100d16000396000f3fe6080604052600436106102d15763ffffffff60e060020a600035041663044641eb81146102d357806305f951df14610315578063086e68bb1461033c5780630c2cb8201461036c5780630c57455a146103985780631a0460cd146103d35780631bfc2113146103e85780631df33902146103fd5780632014e5d1146104125780632d0b41ef1461043b578063313ce5671461046e5780633214c7061461048357806336bcd5ec146104985780633d6a75be146104c85780633f19172a146104fe5780634048a2571461051357806341c0e1b5146105935780634e12ac40146105a85780635124077d146105db57806356e721cb146105f0578063611deadf14610623578063642750291461066b578063648ec7b91461068057806364dbdd9d146106e357806367412045146106f8578063759e5ded14610734578063765aca821461077d5780637ab65dbc146107b957806380879ef3146107ce5780638687355f146107f857806387cc6f081461080d57806388ad7eca146108405780638aeb3479146108555780638bcdcbf31461086a5780638da5cb5b146108de5780638f62d4df1461090f57806390276dc71461093957806390ca15b61461097257806398d583f4146109875780639c2cfd891461099c5780639f35bc3e146109b1578063a063cc79146109e4578063a3c2c6e8146109f9578063a6f9dae114610a0e578063ac8cba8f14610a41578063b34b6e8a14610a56578063b97e611314610a99578063ba752d4f14610acc578063bbab2d9b14610ae1578063bce934a914610b0b578063bf164a5314610b20578063bf8d55e214610b35578063cae554b314610b4a578063cbfbeda414610b74578063d0d89fa114610b89578063d5b977b614610bbc578063d8270dce14610bd1578063dfd200c514610be6578063e2eb41ff14610c12578063e37f75fa14610cf0578063e6282b1014610d05578063ebcb00e014610d1a578063f088d54714610d55575b005b3480156102df57600080fd5b506102d1600480360360608110156102f657600080fd5b50600160a060020a038135169060ff6020820135169060400135610d7b565b34801561032157600080fd5b5061032a61115a565b60408051918252519081900360200190f35b34801561034857600080fd5b506102d16004803603604081101561035f57600080fd5b5080359060200135611160565b34801561037857600080fd5b506102d16004803603602081101561038f57600080fd5b50351515611181565b3480156103a457600080fd5b506103ad6111b2565b604080519485526020850193909352838301919091526060830152519081900360800190f35b3480156103df57600080fd5b5061032a6111c4565b3480156103f457600080fd5b506103ad6111ca565b34801561040957600080fd5b5061032a6111d9565b34801561041e57600080fd5b506104276111df565b604080519115158252519081900360200190f35b34801561044757600080fd5b5061032a6004803603602081101561045e57600080fd5b5035600160a060020a03166111e8565b34801561047a57600080fd5b5061032a6111fa565b34801561048f57600080fd5b50610427611200565b3480156104a457600080fd5b506102d1600480360360408110156104bb57600080fd5b508035906020013561120e565b3480156104d457600080fd5b506102d1600480360360608110156104eb57600080fd5b508035906020810135906040013561125e565b34801561050a57600080fd5b5061032a6112d2565b34801561051f57600080fd5b506105466004803603602081101561053657600080fd5b5035600160a060020a031661135a565b60408051600160a060020a03909916895260208901979097528787019590955260608701939093526080860191909152151560a085015260c084015260e083015251908190036101000190f35b34801561059f57600080fd5b506102d16113ab565b3480156105b457600080fd5b5061032a600480360360208110156105cb57600080fd5b5035600160a060020a03166113e5565b3480156105e757600080fd5b5061032a6114c4565b3480156105fc57600080fd5b506104276004803603602081101561061357600080fd5b5035600160a060020a03166114ca565b34801561062f57600080fd5b5061064d6004803603602081101561064657600080fd5b5035611573565b60408051938452602084019290925282820152519081900360600190f35b34801561067757600080fd5b5061032a6115fd565b34801561068c57600080fd5b506106b3600480360360208110156106a357600080fd5b5035600160a060020a0316611603565b60408051600160a060020a0390951685526020850193909352838301919091526060830152519081900360800190f35b3480156106ef57600080fd5b5061032a611634565b34801561070457600080fd5b5061032a6004803603604081101561071b57600080fd5b508035600160a060020a0316906020013560ff1661163a565b34801561074057600080fd5b506107676004803603602081101561075757600080fd5b5035600160a060020a03166117be565b6040805160ff9092168252519081900360200190f35b34801561078957600080fd5b506102d1600480360360808110156107a057600080fd5b5080359060208101359060408101359060600135611a36565b3480156107c557600080fd5b5061032a611ac3565b3480156107da57600080fd5b5061032a600480360360208110156107f157600080fd5b5035611ac9565b34801561080457600080fd5b5061032a611adb565b34801561081957600080fd5b506104276004803603602081101561083057600080fd5b5035600160a060020a0316611ae1565b34801561084c57600080fd5b5061032a611b9a565b34801561086157600080fd5b5061032a611ba0565b34801561087657600080fd5b5061089d6004803603602081101561088d57600080fd5b5035600160a060020a0316611ba6565b604080519889526020890197909752878701959095526060870193909352608086019190915260a085015260c084015260e083015251908190036101000190f35b3480156108ea57600080fd5b506108f3611be9565b60408051600160a060020a039092168252519081900360200190f35b34801561091b57600080fd5b5061032a6004803603602081101561093257600080fd5b5035611bf8565b34801561094557600080fd5b506104276004803603604081101561095c57600080fd5b50600160a060020a038135169060200135611c41565b34801561097e57600080fd5b5061032a61226a565b34801561099357600080fd5b5061032a612270565b3480156109a857600080fd5b5061032a612276565b3480156109bd57600080fd5b5061032a600480360360208110156109d457600080fd5b5035600160a060020a03166122b3565b3480156109f057600080fd5b5061032a61236e565b348015610a0557600080fd5b5061032a612374565b348015610a1a57600080fd5b506102d160048036036020811015610a3157600080fd5b5035600160a060020a031661237a565b348015610a4d57600080fd5b5061032a6123b3565b348015610a6257600080fd5b50610a8060048036036020811015610a7957600080fd5b50356123b9565b6040805192835260208301919091528051918290030190f35b348015610aa557600080fd5b5061032a60048036036020811015610abc57600080fd5b5035600160a060020a03166123d5565b348015610ad857600080fd5b506108f36123e7565b348015610aed57600080fd5b5061032a60048036036020811015610b0457600080fd5b50356123f6565b348015610b1757600080fd5b506108f3612408565b348015610b2c57600080fd5b5061032a612417565b348015610b4157600080fd5b5061032a61241d565b348015610b5657600080fd5b5061032a60048036036020811015610b6d57600080fd5b503561242d565b348015610b8057600080fd5b5061064d61243f565b348015610b9557600080fd5b5061042760048036036020811015610bac57600080fd5b5035600160a060020a031661244d565b348015610bc857600080fd5b5061032a61247c565b348015610bdd57600080fd5b5061032a612482565b348015610bf257600080fd5b506102d160048036036020811015610c0957600080fd5b50351515612488565b348015610c1e57600080fd5b50610c4560048036036020811015610c3557600080fd5b5035600160a060020a03166124b2565b604051808f81526020018e600160a060020a0316600160a060020a031681526020018d81526020018c600160a060020a0316600160a060020a031681526020018b81526020018a81526020018981526020018881526020018715151515815260200186600160a060020a0316600160a060020a031681526020018581526020018481526020018381526020018281526020019e50505050505050505050505050505060405180910390f35b348015610cfc57600080fd5b5061032a61252d565b348015610d1157600080fd5b5061064d612533565b348015610d2657600080fd5b506102d160048036036040811015610d3d57600080fd5b50600160a060020a03813581169160200135166127cd565b6102d160048036036020811015610d6b57600080fd5b5035600160a060020a0316612812565b60115460ff161515600114610d8f57600080fd5b600f54600160a060020a03163314610da657600080fd5b600e54600160a060020a031631811115610dbf57600080fd5b6000826006811115610dcd57fe5b1415610e4257600160a060020a038316600090815260266020526040902054811115610df857600080fd5b600160a060020a0383166000818152602660205260408082208290555183156108fc0291849190818181858888f19350505050158015610e3c573d6000803e3d6000fd5b50611155565b6002826006811115610e5057fe5b1415610ecc57600160a060020a03831660009081526026602052604090206009810154905401811115610e8257600080fd5b600160a060020a0383166000818152602660205260408082208281556009018290555183156108fc0291849190818181858888f19350505050158015610e3c573d6000803e3d6000fd5b6001826006811115610eda57fe5b1415610f4f57600160a060020a038316600090815260266020526040902060090154811115610f0857600080fd5b600160a060020a0383166000818152602660205260408082206009018290555183156108fc0291849190818181858888f19350505050158015610e3c573d6000803e3d6000fd5b6003826006811115610f5d57fe5b1415610fd257600160a060020a0383166000908152602660205260409020600a0154811115610f8b57600080fd5b600160a060020a038316600081815260266020526040808220600a018290555183156108fc0291849190818181858888f19350505050158015610e3c573d6000803e3d6000fd5b6004826006811115610fe057fe5b141561104f57600160a060020a03831660009081526041602052604090205481111561100b57600080fd5b600160a060020a0383166000818152604160205260408082208290555183156108fc0291849190818181858888f19350505050158015610e3c573d6000803e3d6000fd5b600682600681111561105d57fe5b14156110d257600160a060020a0383166000908152602660205260409020600b015481111561108b57600080fd5b600160a060020a038316600081815260266020526040808220600b018290555183156108fc0291849190818181858888f19350505050158015610e3c573d6000803e3d6000fd5b60058260068111156110e057fe5b141561115557600160a060020a0383166000908152602660205260409020600c015481111561110e57600080fd5b600160a060020a038316600081815260266020526040808220600c018290555183156108fc0291849190818181858888f19350505050158015610e3c573d6000803e3d6000fd5b505050565b60055481565b600061116b83611bf8565b6000908152602960205260409020919091555050565b600d54600160a060020a0316331461119857600080fd5b601180549115156101000261ff0019909216919091179055565b603154603454603754603a5490919293565b60065481565b60135460145460155460165484565b600b5481565b60115460ff1681565b60416020526000908152604090205481565b60005481565b601154610100900460ff1681565b600d54600160a060020a0316331461122557600080fd5b816001141561123857601781905561125a565b816002141561124b57601881905561125a565b816003141561125a5760198190555b5050565b600d54600160a060020a0316331461127557600080fd5b826001141561128d5760018290556005819055611155565b82600214156112a55760028290556006819055611155565b82600314156112bd5760038290556007819055611155565b82600414156111555760049190915560085550565b33600081815260286020526040812060050154909190829060ff16156113535760006112fc61241d565b9050611307836113e5565b600160a060020a03841660009081526028602090815260408083206004810195909555602682528083208054850190556006909401805484019055602790529190912080548201905590505b9150505b90565b60286020526000908152604090208054600182015460028301546003840154600485015460058601546006870154600790970154600160a060020a0390961696949593949293919260ff9091169188565b600d54600160a060020a031633146113c257600080fd5b600d54600160a060020a03163314156113e357600d54600160a060020a0316ff5b565b600160a060020a038116600090815260286020526040812060050154819060ff16156114bc57600061141561241d565b600160a060020a03851660009081526028602052604081206004015491925061143d86612a94565b905060008111156114b857815b838110156114b65760008181526029602052604081205490811161146c575060025b600160a060020a0388166000908152602860205260409020600701546103e89082020495909501948286106114ad576114a58684612aea565b9550506114b6565b5060010161144a565b505b5050505b90505b919050565b60035481565b6040805160e060020a633c9a3acb028152603e6004820152600160a060020a0383166024820152905160009173__AddressMapping________________________91633c9a3acb91604480820192602092909190829003018186803b15801561153257600080fd5b505af4158015611546573d6000803e3d6000fd5b505050506040513d602081101561155c57600080fd5b50511561156b575060016114bf565b506000919050565b60008060008360011415611595575050601a54601b54601c54919250906115f6565b83600214156115b2575050601d54601e54601f54919250906115f6565b83600314156115cf575050602054602154602254919250906115f6565b83600414156115ec575050602354602454602554919250906115f6565b5060009150819050805b9193909250565b603a5481565b602a602052600090815260409020805460018201546002830154600390930154600160a060020a0390921692909184565b603d5481565b60008082600681111561164957fe5b141561166e5750600160a060020a0382166000908152602660205260409020546117b8565b600182600681111561167c57fe5b14156116a45750600160a060020a0382166000908152602660205260409020600901546117b8565b60028260068111156116b257fe5b14156116df5750600160a060020a03821660009081526026602052604090208054600990910154016117b8565b60038260068111156116ed57fe5b14156117155750600160a060020a0382166000908152602660205260409020600a01546117b8565b600482600681111561172357fe5b14156117485750600160a060020a0382166000908152604160205260409020546117b8565b600682600681111561175657fe5b141561177e5750600160a060020a0382166000908152602660205260409020600b01546117b8565b600582600681111561178c57fe5b14156117b45750600160a060020a0382166000908152602660205260409020600c01546117b8565b5060005b92915050565b6040805160e060020a633c9a3acb028152602f6004820152600160a060020a0383166024820152905160009173__AddressMapping________________________91633c9a3acb91604480820192602092909190829003018186803b15801561182657600080fd5b505af415801561183a573d6000803e3d6000fd5b505050506040513d602081101561185057600080fd5b50511561185f575060016114bf565b6040805160e060020a633c9a3acb02815260326004820152600160a060020a0384166024820152905173__AddressMapping________________________91633c9a3acb916044808301926020929190829003018186803b1580156118c357600080fd5b505af41580156118d7573d6000803e3d6000fd5b505050506040513d60208110156118ed57600080fd5b5051156118fc575060026114bf565b6040805160e060020a633c9a3acb02815260356004820152600160a060020a0384166024820152905173__AddressMapping________________________91633c9a3acb916044808301926020929190829003018186803b15801561196057600080fd5b505af4158015611974573d6000803e3d6000fd5b505050506040513d602081101561198a57600080fd5b505115611999575060036114bf565b6040805160e060020a633c9a3acb02815260386004820152600160a060020a0384166024820152905173__AddressMapping________________________91633c9a3acb916044808301926020929190829003018186803b1580156119fd57600080fd5b505af4158015611a11573d6000803e3d6000fd5b505050506040513d6020811015611a2757600080fd5b50511561156b575060046114bf565b600d54600160a060020a03163314611a4d57600080fd5b8360011415611a6a57601a839055601b829055601c819055611abd565b8360021415611a8757601d839055601e829055601f819055611abd565b8360031415611aa457602083905560218290556022819055611abd565b8360041415611abd576023839055602482905560258190555b50505050565b60015481565b602c6020526000908152604090205481565b60405481565b600d54600090600160a060020a03163314611afb57600080fd5b6040805160e060020a6392c6a2fd028152603e6004820152600160a060020a038416602482015260036044820152905173__AddressMapping________________________916392c6a2fd916064808301926020929190829003018186803b158015611b6657600080fd5b505af4158015611b7a573d6000803e3d6000fd5b505050506040513d6020811015611b9057600080fd5b5060019392505050565b600a5481565b60345481565b6027602052600090815260409020805460018201546002830154600384015460048501546005860154600687015460079097015495969495939492939192909188565b600d54600160a060020a031681565b601154600090610100900460ff1615611c275760105461025880840491600091905b0490910391506114bf9050565b601054610e10601880850482900492600092919004611c1a565b600f54600090600160a060020a03163314611c5b57600080fd5b604080517f1b831286000000000000000000000000000000000000000000000000000000008152603e6004820152905160009182918291829173__AddressMapping________________________91631b831286916024808301926020929190829003018186803b158015611ccf57600080fd5b505af4158015611ce3573d6000803e3d6000fd5b505050506040513d6020811015611cf957600080fd5b505190505b73__AddressMapping________________________63c7a3774d603e836040518363ffffffff1660e060020a028152600401808381526020018281526020019250505060206040518083038186803b158015611d5957600080fd5b505af4158015611d6d573d6000803e3d6000fd5b505050506040513d6020811015611d8357600080fd5b505115611ef357604080517fabdbf9cd000000000000000000000000000000000000000000000000000000008152603e600482015260248101839052815160009273__AddressMapping________________________9263abdbf9cd9260448083019392829003018186803b158015611dfb57600080fd5b505af4158015611e0f573d6000803e3d6000fd5b505050506040513d6040811015611e2557600080fd5b506020015190506001811415611e4057600185019450611e64565b8060021415611e5457600184019350611e64565b8060031415611e64576001830192505b5073__AddressMapping________________________63b91637d3603e836040518363ffffffff1660e060020a028152600401808381526020018281526020019250505060206040518083038186803b158015611ec057600080fd5b505af4158015611ed4573d6000803e3d6000fd5b505050506040513d6020811015611eea57600080fd5b50519050611cfe565b508460011415611fa457601754831015611f9f576040805160e060020a6392c6a2fd028152603e6004820152600160a060020a038816602482015260016044820152905173__AddressMapping________________________916392c6a2fd916064808301926020929190829003018186803b158015611f7257600080fd5b505af4158015611f86573d6000803e3d6000fd5b505050506040513d6020811015611f9c57600080fd5b50505b61225e565b84600214156120c957601854821015612054576040805160e060020a6392c6a2fd028152603e6004820152600160a060020a038816602482015260026044820152905173__AddressMapping________________________916392c6a2fd916064808301926020929190829003018186803b15801561202257600080fd5b505af4158015612036573d6000803e3d6000fd5b505050506040513d602081101561204c57600080fd5b50611f9f9050565b601754831015611f9f576040805160e060020a6392c6a2fd028152603e6004820152600160a060020a038816602482015260016044820152905173__AddressMapping________________________916392c6a2fd916064808301926020929190829003018186803b158015611f7257600080fd5b846003141561225e57601954811015612147576040805160e060020a6392c6a2fd028152603e6004820152600160a060020a038816602482015260036044820152905173__AddressMapping________________________916392c6a2fd916064808301926020929190829003018186803b158015611f7257600080fd5b6018548210156121bc576040805160e060020a6392c6a2fd028152603e6004820152600160a060020a038816602482015260026044820152905173__AddressMapping________________________916392c6a2fd916064808301926020929190829003018186803b158015611f7257600080fd5b60175483101561225e576040805160e060020a6392c6a2fd028152603e6004820152600160a060020a038816602482015260016044820152905173__AddressMapping________________________916392c6a2fd916064808301926020929190829003018186803b15801561223157600080fd5b505af4158015612245573d6000803e3d6000fd5b505050506040513d602081101561225b57600080fd5b50505b50600195945050505050565b60095481565b60075481565b601154600090610100900460ff161561229b5750426102588082046001010203611357565b5042620151806001610e106018840404010203611357565b6040805160e060020a633c9a3acb028152603e6004820152600160a060020a0383166024820152905160009173__AddressMapping________________________91633c9a3acb91604480820192602092909190829003018186803b15801561231b57600080fd5b505af415801561232f573d6000803e3d6000fd5b505050506040513d602081101561234557600080fd5b50511561156b5750600160a060020a0381166000908152603e60205260409020600101546114bf565b600c5481565b60025481565b600d54600160a060020a0316331461239157600080fd5b600d8054600160a060020a031916600160a060020a0392909216919091179055565b60045481565b602b602052600090815260409020600281015460039091015482565b602e6020526000908152604090205481565b600e54600160a060020a031681565b602d6020526000908152604090205481565b600f54600160a060020a031681565b60315481565b600061242842611bf8565b905090565b60296020526000908152604090205481565b601754601854601954909192565b600061245882612b02565b1515612466575060016114bf565b600061247183612a94565b600010159392505050565b60375481565b60105481565b600d54600160a060020a0316331461249f57600080fd5b6011805460ff1916911515919091179055565b602660205260009081526040902080546001820154600283015460038401546004850154600586015460068701546007880154600889015460098a0154600a8b0154600b8c0154600c909c01549a9b600160a060020a039a8b169b999a98891699979896979596949560ff851695610100909504909416938e565b60085481565b6000806000806000905060008090506000809050600073__AddressMapping________________________631b831286603e6040518263ffffffff1660e060020a0281526004018082815260200191505060206040518083038186803b15801561259c57600080fd5b505af41580156125b0573d6000803e3d6000fd5b505050506040513d60208110156125c657600080fd5b505190505b73__AddressMapping________________________63c7a3774d603e836040518363ffffffff1660e060020a028152600401808381526020018281526020019250505060206040518083038186803b15801561262657600080fd5b505af415801561263a573d6000803e3d6000fd5b505050506040513d602081101561265057600080fd5b5051156127c057604080517fabdbf9cd000000000000000000000000000000000000000000000000000000008152603e600482015260248101839052815160009273__AddressMapping________________________9263abdbf9cd9260448083019392829003018186803b1580156126c857600080fd5b505af41580156126dc573d6000803e3d6000fd5b505050506040513d60408110156126f257600080fd5b50602001519050600181141561270d57600185019450612731565b806002141561272157600184019350612731565b8060031415612731576001830192505b5073__AddressMapping________________________63b91637d3603e836040518363ffffffff1660e060020a028152600401808381526020018281526020019250505060206040518083038186803b15801561278d57600080fd5b505af41580156127a1573d6000803e3d6000fd5b505050506040513d60208110156127b757600080fd5b505190506125cb565b5091945092509050909192565b600d54600160a060020a031633146127e457600080fd5b600f8054600160a060020a03938416600160a060020a031991821617909155600e8054929093169116179055565b60115460ff16151560011461282657600080fd5b33600160a060020a038216141561283c57600080fd5b601a5434101561284b57600080fd5b61285481612b2e565b151561286a576128646000612b54565b50612875565b61287381612b54565b505b600061288033612b02565b9050801561288d57600080fd5b60008061289934612cbd565b9092509050600082116128ab57600080fd5b600081116128b857600080fd5b6128c28282612d53565b3360008181526026602052604090206006018054349081019091556128ea9190600190612dd0565b6128f2613087565b6128fa61332e565b600061290461241d565b905060006064601e60583402829004600f02829004026000848152602b602081815260408084203380865281845282862060010154958a905293835281517fd4b3ae7100000000000000000000000000000000000000000000000000000000815260048101919091526024810193909352348401604484015251949093049450909273__BonusMapping__________________________9263d4b3ae719260648082019391829003018186803b1580156129bd57600080fd5b505af41580156129d1573d6000803e3d6000fd5b505050506040513d60208110156129e757600080fd5b50506000838152602c60209081526040808320805486019055602d9091529020805483019055601380546064600f346058028290040281900460460204908101918290559069065a4da25d3016c0000011612a425760006013555b612a4a613822565b600c54670de0b6b3a7640000340490612a6e90610e10830201620151804201612aea565b600c556000600019860110612a8957612a8960018603613bd6565b505050505050505050565b600160a060020a03811660009081526028602052604081206005015460ff161561156b5750600160a060020a038116600090815260286020526040902060068101546003820154600790920154909102036114bf565b6000818310612af95781612afb565b825b9392505050565b600160a060020a03811660009081526028602052604081206005015460ff161561156b575060016114bf565b600160a060020a031660009081526026602052604090206008015460ff16151560011490565b6000600160a060020a03821615612c3057600160a060020a03821660009081526026602052604090206008015460ff161515612b92575060006114bf565b3360009081526026602052604090206008015460ff16151560011415612bba575060006114bf565b600160a060020a0382166000818152602660205260408082206002018054600190810190915533808452919092206008810180549184018054600160a060020a03191690951790945560ff191690911774ffffffffffffffffffffffffffffffffffffffff001916610100909102179055612cb5565b3360009081526026602052604090206008015460ff16151560011415612c58575060006114bf565b33600081815260266020526040812060018082018054600160a060020a031916905560088201805460029093019390935560ff199091161774ffffffffffffffffffffffffffffffffffffffff0019166101009092029190911790555b506001919050565b601a546000908190819081908510801590612cda5750601b548511155b15612cec575050601c54600190612d49565b601d5485118015612cff5750601e548511155b15612d11575050601f54600290612d49565b60205485118015612d2457506021548511155b15612d36575050602254600390612d49565b602354851115612d495750506025546004905b9092509050915091565b3360008181526028602052604090208054600160a060020a0319169091179055612d7b61241d565b33600090815260286020526040902060010155612d9661241d565b336000908152602860205260409020600481019190915560028101929092556003820155346007820155600501805460ff19166001179055565b600160a060020a038084166000908152602660205260409020600190810154909116845b60328311158015612e0d5750600160a060020a03821615155b1561307f57600160a060020a0380821660009081526026602052604080822085841683529120600381015491929091161515612e7557600381018054600160a060020a031916600160a060020a03851617905560068201546005830154016004820155612eb9565b816006015482600501540181600401541015612eb957600381018054600160a060020a031916600160a060020a038516179055600682015460058301540160048201555b861561304a576032851015612ed75760058101805487019055612ee2565b600781018054870190555b8460011415612f2757600160a060020a03841660009081526028602052604090206005015460ff1615612f2257612f20846064600c89025b04614229565b505b612fa1565b8460021415612f6357600160a060020a03841660009081526028602052604090206005015460ff1615612f2257612f2084606460088902612f1a565b8460031415612fa157600160a060020a03841660009081526028602052604090206005015460ff1615612fa157612f9f84606460058902612f1a565b505b600160a060020a0384166000908152603e602052604090206001908101549081141561300557600954600b830180546064928a02929092049182019055600160a060020a038616600090815260276020526040902060050180549091019055613048565b806002141561304857600a54600c830180546064928a02929092049182019055600160a060020a0386166000908152602760205260409020600601805490910190555b505b613053846142b1565b505050600160a060020a0380821660009081526026602052604090206001908101549301921690612df4565b505050505050565b60008060008061309634614765565b9350935093509350600073__AddressMapping________________________631b831286603b6040518263ffffffff1660e060020a0281526004018082815260200191505060206040518083038186803b1580156130f357600080fd5b505af4158015613107573d6000803e3d6000fd5b505050506040513d602081101561311d57600080fd5b505190505b73__AddressMapping________________________63c7a3774d603b836040518363ffffffff1660e060020a028152600401808381526020018281526020019250505060206040518083038186803b15801561317d57600080fd5b505af4158015613191573d6000803e3d6000fd5b505050506040513d60208110156131a757600080fd5b5051156133275760008073__AddressMapping________________________63abdbf9cd603b856040518363ffffffff1660e060020a0281526004018083815260200182815260200192505050604080518083038186803b15801561320b57600080fd5b505af415801561321f573d6000803e3d6000fd5b505050506040513d604081101561323557600080fd5b5080516020909101519092509050600181141561325c576132568288614846565b50613297565b806002141561326f576132568287614846565b8060031415613282576132568286614846565b8060041415613297576132958285614846565b505b505073__AddressMapping________________________63b91637d3603b836040518363ffffffff1660e060020a028152600401808381526020018281526020019250505060206040518083038186803b1580156132f457600080fd5b505af4158015613308573d6000803e3d6000fd5b505050506040513d602081101561331e57600080fd5b50519050613122565b5050505050565b6000809050600073__AddressMapping________________________631b831286603e6040518263ffffffff1660e060020a0281526004018082815260200191505060206040518083038186803b15801561338857600080fd5b505af415801561339c573d6000803e3d6000fd5b505050506040513d60208110156133b257600080fd5b505190505b73__AddressMapping________________________63c7a3774d603e836040518363ffffffff1660e060020a028152600401808381526020018281526020019250505060206040518083038186803b15801561341257600080fd5b505af4158015613426573d6000803e3d6000fd5b505050506040513d602081101561343c57600080fd5b50511561358357604080517fabdbf9cd000000000000000000000000000000000000000000000000000000008152603e600482015260248101839052815160009273__AddressMapping________________________9263abdbf9cd9260448083019392829003018186803b1580156134b457600080fd5b505af41580156134c8573d6000803e3d6000fd5b505050506040513d60408110156134de57600080fd5b50602001519050600381106134f4576001830192505b5073__AddressMapping________________________63b91637d3603e836040518363ffffffff1660e060020a028152600401808381526020018281526020019250505060206040518083038186803b15801561355057600080fd5b505af4158015613564573d6000803e3d6000fd5b505050506040513d602081101561357a57600080fd5b505190506133b7565b50600081111561381f57600073__AddressMapping________________________631b831286603e6040518263ffffffff1660e060020a0281526004018082815260200191505060206040518083038186803b1580156135e257600080fd5b505af41580156135f6573d6000803e3d6000fd5b505050506040513d602081101561360c57600080fd5b505190505b73__AddressMapping________________________63c7a3774d603e836040518363ffffffff1660e060020a028152600401808381526020018281526020019250505060206040518083038186803b15801561366c57600080fd5b505af4158015613680573d6000803e3d6000fd5b505050506040513d602081101561369657600080fd5b50511561125a5760008073__AddressMapping________________________63abdbf9cd603e856040518363ffffffff1660e060020a0281526004018083815260200182815260200192505050604080518083038186803b1580156136fa57600080fd5b505af415801561370e573d6000803e3d6000fd5b505050506040513d604081101561372457600080fd5b50805160209091015190925090506003811061378f576000846064600b54340281151561374d57fe5b0481151561375757fe5b600160a060020a0385166000908152604160209081526040808320805495909404948501909355602790522060070180549091019055505b505073__AddressMapping________________________63b91637d3603e836040518363ffffffff1660e060020a028152600401808381526020018281526020019250505060206040518083038186803b1580156137ec57600080fd5b505af4158015613800573d6000803e3d6000fd5b505050506040513d602081101561381657600080fd5b50519050613611565b50565b600061382c61241d565b6000818152602b60205260409020600201549091506032101561381f576000818152602b6020908152604080832081517f60002057000000000000000000000000000000000000000000000000000000008152600481019190915290518392839273__BonusMapping__________________________92636000205792602480840193919291829003018186803b1580156138c657600080fd5b505af41580156138da573d6000803e3d6000fd5b505050506040513d60208110156138f057600080fd5b505190505b73__BonusMapping__________________________63e26b79d5602b6000878152602001908152602001600020836040518363ffffffff1660e060020a028152600401808381526020018281526020019250505060206040518083038186803b15801561396157600080fd5b505af4158015613975573d6000803e3d6000fd5b505050506040513d602081101561398b57600080fd5b505115613b13576000848152602b602052604080822081517f2f696eeb0000000000000000000000000000000000000000000000000000000081526004810191909152602481018490528151839273__BonusMapping__________________________92632f696eeb9260448083019392829003018186803b158015613a1057600080fd5b505af4158015613a24573d6000803e3d6000fd5b505050506040513d6040811015613a3a57600080fd5b5080516020909101519092509050600160a060020a0385161515613a6357809350819450613a72565b83811015613a72578093508194505b505073__BonusMapping__________________________6352271ad6602b6000878152602001908152602001600020836040518363ffffffff1660e060020a028152600401808381526020018281526020019250505060206040518083038186803b158015613ae057600080fd5b505af4158015613af4573d6000803e3d6000fd5b505050506040513d6020811015613b0a57600080fd5b505190506138f5565b50600160a060020a0382161515611155576000838152602b602090815260409182902082517f4163a83b0000000000000000000000000000000000000000000000000000000081526004810191909152600160a060020a0385166024820152915173__BonusMapping__________________________92634163a83b926044808301939192829003018186803b158015613bac57600080fd5b505af4158015613bc0573d6000803e3d6000fd5b505050506040513d602081101561332757600080fd5b6000818152602c6020526040812054111561381f57600080600073__BonusMapping__________________________6360002057602b60008781526020019081526020016000206040518263ffffffff1660e060020a0281526004018082815260200191505060206040518083038186803b158015613c5457600080fd5b505af4158015613c68573d6000803e3d6000fd5b505050506040513d6020811015613c7e57600080fd5b505190505b73__BonusMapping__________________________63e26b79d5602b6000878152602001908152602001600020836040518363ffffffff1660e060020a028152600401808381526020018281526020019250505060206040518083038186803b158015613cef57600080fd5b505af4158015613d03573d6000803e3d6000fd5b505050506040513d6020811015613d1957600080fd5b505115613ea1576000848152602b602052604080822081517f2f696eeb0000000000000000000000000000000000000000000000000000000081526004810191909152602481018490528151839273__BonusMapping__________________________92632f696eeb9260448083019392829003018186803b158015613d9e57600080fd5b505af4158015613db2573d6000803e3d6000fd5b505050506040513d6040811015613dc857600080fd5b5080516020909101519092509050600160a060020a0385161515613df157809350819450613e00565b83811115613e00578093508194505b505073__BonusMapping__________________________6352271ad6602b6000878152602001908152602001600020836040518363ffffffff1660e060020a028152600401808381526020018281526020019250505060206040518083038186803b158015613e6e57600080fd5b505af4158015613e82573d6000803e3d6000fd5b505050506040513d6020811015613e9857600080fd5b50519050613c83565b50600160a060020a03821615611155576000838152602c6020908152604080832054602b9092529091206002908101549081106141dd576000858152602b6020908152604080832081517f600020570000000000000000000000000000000000000000000000000000000081526004810191909152905173__BonusMapping__________________________9263600020579260248082019391829003018186803b158015613f4f57600080fd5b505af4158015613f63573d6000803e3d6000fd5b505050506040513d6020811015613f7957600080fd5b505190505b73__BonusMapping__________________________63e26b79d5602b6000898152602001908152602001600020836040518363ffffffff1660e060020a028152600401808381526020018281526020019250505060206040518083038186803b158015613fea57600080fd5b505af4158015613ffe573d6000803e3d6000fd5b505050506040513d602081101561401457600080fd5b5051156141db576000868152602b602052604080822081517f2f696eeb000000000000000000000000000000000000000000000000000000008152600481019190915260248101849052815173__BonusMapping__________________________92632f696eeb9260448082019391829003018186803b15801561409757600080fd5b505af41580156140ab573d6000803e3d6000fd5b505050506040513d60408110156140c157600080fd5b50519050600160a060020a038082169087161461413b57600160a060020a038116600090815260266020526040812090600260001986018781151561410257fe5b0481151561410c57fe5b835491900490810190925550600160a060020a0382166000908152602760205260409020600201805490910190555b5073__BonusMapping__________________________6352271ad6602b6000898152602001908152602001600020836040518363ffffffff1660e060020a028152600401808381526020018281526020019250505060206040518083038186803b1580156141a857600080fd5b505af41580156141bc573d6000803e3d6000fd5b505050506040513d60208110156141d257600080fd5b50519050613f7e565b505b50600160a060020a039290921660009081526026602090815260408083208054600296879004908101909155602790925290912090920180549092019091555050601680546001019055565b600160a060020a03821660009081526028602052604081206005015460ff16156117b457600061425884612a94565b90506142648184612aea565b600160a060020a0385166000908152602660209081526040808320600901805485019055602882528083206006018054850190556027909152902060010180548201905591506117b89050565b600160a060020a0381166000908152603b6020526040812060010154906142d7836148d0565b90508082101561115557816001141561439657604080517f5a70ffa0000000000000000000000000000000000000000000000000000000008152602f6004820152600160a060020a0385166024820152905173__AddressMapping________________________91635a70ffa0916044808301926020929190829003018186803b15801561436457600080fd5b505af4158015614378573d6000803e3d6000fd5b505050506040513d602081101561438e57600080fd5b506144c99050565b816002141561441957604080517f5a70ffa000000000000000000000000000000000000000000000000000000000815260326004820152600160a060020a0385166024820152905173__AddressMapping________________________91635a70ffa0916044808301926020929190829003018186803b15801561436457600080fd5b81600314156144c957604080517f5a70ffa000000000000000000000000000000000000000000000000000000000815260356004820152600160a060020a0385166024820152905173__AddressMapping________________________91635a70ffa0916044808301926020929190829003018186803b15801561449c57600080fd5b505af41580156144b0573d6000803e3d6000fd5b505050506040513d60208110156144c657600080fd5b50505b806001141561456f576040805160e060020a6392c6a2fd028152602f6004820152600160a060020a038516602482015260016044820152905173__AddressMapping________________________916392c6a2fd916064808301926020929190829003018186803b15801561453d57600080fd5b505af4158015614551573d6000803e3d6000fd5b505050506040513d602081101561456757600080fd5b506146fa9050565b80600214156145e3576040805160e060020a6392c6a2fd02815260326004820152600160a060020a038516602482015260026044820152905173__AddressMapping________________________916392c6a2fd916064808301926020929190829003018186803b15801561453d57600080fd5b8060031415614657576040805160e060020a6392c6a2fd02815260356004820152600160a060020a038516602482015260036044820152905173__AddressMapping________________________916392c6a2fd916064808301926020929190829003018186803b15801561453d57600080fd5b80600414156146fa576040805160e060020a6392c6a2fd0281526038600482810191909152600160a060020a03861660248301526044820152905173__AddressMapping________________________916392c6a2fd916064808301926020929190829003018186803b1580156146cd57600080fd5b505af41580156146e1573d6000803e3d6000fd5b505050506040513d60208110156146f757600080fd5b50505b6040805160e060020a6392c6a2fd028152603b6004820152600160a060020a038516602482015260448101839052905173__AddressMapping________________________916392c6a2fd916064808301926020929190829003018186803b158015613bac57600080fd5b603a54603754603454603154600093849384938493849384938493849381018201830192908201810191810190848411156147b85760648460038f028115156147aa57fe5b048115156147b457fe5b0497505b60008311156147df5760648360038f028115156147d157fe5b048115156147db57fe5b0496505b60008211156148065760648260038f028115156147f857fe5b0481151561480257fe5b0495505b600081111561482d5760648160038f0281151561481f57fe5b0481151561482957fe5b0494505b50959b948c019a50505090880196508601945092505050565b600160a060020a03821660009081526028602052604081206005015460ff16156117b457600061487584612a94565b905060006148838285612aea565b600160a060020a0386166000908152602660209081526040808320600a018054850190556028825280832060060180548501905560279091529020600401805490910190555090506117b8565b600160a060020a0381166000908152602660205260408120600881015460ff1615156149005760009150506114bf565b6005810154600782015460048084015490549190920191808303911180159061492b57506008548110155b1561493c57600493505050506114bf565b60035483600401541015801561495457506007548110155b1561496557600393505050506114bf565b60025483600401541015801561497d57506006548110155b1561498e57600293505050506114bf565b6001548360040154101580156149a657506005548110155b156149b757600193505050506114bf565b50600094935050505056fea165627a7a72305820d41fbc4adb58a28402c18dd40627073acef5bdd39db393768f5ff4ff1bb122620029","updatedAt":"2019-06-26T09:08:32.982Z","schemaVersion":"3.0.1","contractName":"Dividend"}