{
    "contractName": "GHFToken",
    "abi": [
        {
            "constant": true,
            "inputs": [],
            "name": "name",
            "outputs": [
                {
                    "name": "",
                    "type": "string"
                }
            ],
            "payable": false,
            "stateMutability": "view",
            "type": "function",
            "signature": "0x06fdde03"
        },
        {
            "constant": true,
            "inputs": [],
            "name": "minter",
            "outputs": [
                {
                    "name": "",
                    "type": "address"
                }
            ],
            "payable": false,
            "stateMutability": "view",
            "type": "function",
            "signature": "0x07546172"
        },
        {
            "constant": false,
            "inputs": [
                {
                    "name": "_spender",
                    "type": "address"
                },
                {
                    "name": "_value",
                    "type": "uint256"
                }
            ],
            "name": "approve",
            "outputs": [
                {
                    "name": "",
                    "type": "bool"
                }
            ],
            "payable": false,
            "stateMutability": "nonpayable",
            "type": "function",
            "signature": "0x095ea7b3"
        },
        {
            "constant": true,
            "inputs": [],
            "name": "totalSupply",
            "outputs": [
                {
                    "name": "",
                    "type": "uint256"
                }
            ],
            "payable": false,
            "stateMutability": "view",
            "type": "function",
            "signature": "0x18160ddd"
        },
        {
            "constant": true,
            "inputs": [],
            "name": "isRunning",
            "outputs": [
                {
                    "name": "",
                    "type": "bool"
                }
            ],
            "payable": false,
            "stateMutability": "view",
            "type": "function",
            "signature": "0x2014e5d1"
        },
        {
            "constant": false,
            "inputs": [
                {
                    "name": "_from",
                    "type": "address"
                },
                {
                    "name": "_to",
                    "type": "address"
                },
                {
                    "name": "_value",
                    "type": "uint256"
                }
            ],
            "name": "transferFrom",
            "outputs": [
                {
                    "name": "",
                    "type": "bool"
                }
            ],
            "payable": false,
            "stateMutability": "nonpayable",
            "type": "function",
            "signature": "0x23b872dd"
        },
        {
            "constant": true,
            "inputs": [],
            "name": "INITIAL_SUPPLY",
            "outputs": [
                {
                    "name": "",
                    "type": "uint256"
                }
            ],
            "payable": false,
            "stateMutability": "view",
            "type": "function",
            "signature": "0x2ff2e9dc"
        },
        {
            "constant": true,
            "inputs": [],
            "name": "decimals",
            "outputs": [
                {
                    "name": "",
                    "type": "uint256"
                }
            ],
            "payable": false,
            "stateMutability": "view",
            "type": "function",
            "signature": "0x313ce567"
        },
        {
            "constant": true,
            "inputs": [],
            "name": "totalBurn",
            "outputs": [
                {
                    "name": "",
                    "type": "uint256"
                }
            ],
            "payable": false,
            "stateMutability": "view",
            "type": "function",
            "signature": "0x3c9f861d"
        },
        {
            "constant": true,
            "inputs": [],
            "name": "miner1ETH",
            "outputs": [
                {
                    "name": "",
                    "type": "uint256"
                }
            ],
            "payable": false,
            "stateMutability": "view",
            "type": "function",
            "signature": "0x5d8a3ca3"
        },
        {
            "constant": false,
            "inputs": [
                {
                    "name": "_spender",
                    "type": "address"
                },
                {
                    "name": "_subtractedValue",
                    "type": "uint256"
                }
            ],
            "name": "decreaseApproval",
            "outputs": [
                {
                    "name": "",
                    "type": "bool"
                }
            ],
            "payable": false,
            "stateMutability": "nonpayable",
            "type": "function",
            "signature": "0x66188463"
        },
        {
            "constant": true,
            "inputs": [
                {
                    "name": "_owner",
                    "type": "address"
                }
            ],
            "name": "balanceOf",
            "outputs": [
                {
                    "name": "",
                    "type": "uint256"
                }
            ],
            "payable": false,
            "stateMutability": "view",
            "type": "function",
            "signature": "0x70a08231"
        },
        {
            "constant": true,
            "inputs": [],
            "name": "owner",
            "outputs": [
                {
                    "name": "",
                    "type": "address"
                }
            ],
            "payable": false,
            "stateMutability": "view",
            "type": "function",
            "signature": "0x8da5cb5b"
        },
        {
            "constant": true,
            "inputs": [],
            "name": "symbol",
            "outputs": [
                {
                    "name": "",
                    "type": "string"
                }
            ],
            "payable": false,
            "stateMutability": "view",
            "type": "function",
            "signature": "0x95d89b41"
        },
        {
            "constant": false,
            "inputs": [
                {
                    "name": "_to",
                    "type": "address"
                },
                {
                    "name": "_value",
                    "type": "uint256"
                }
            ],
            "name": "transfer",
            "outputs": [
                {
                    "name": "",
                    "type": "bool"
                }
            ],
            "payable": false,
            "stateMutability": "nonpayable",
            "type": "function",
            "signature": "0xa9059cbb"
        },
        {
            "constant": true,
            "inputs": [],
            "name": "selfaddr",
            "outputs": [
                {
                    "name": "",
                    "type": "address"
                }
            ],
            "payable": false,
            "stateMutability": "view",
            "type": "function",
            "signature": "0xba752d4f"
        },
        {
            "constant": false,
            "inputs": [
                {
                    "name": "_spender",
                    "type": "address"
                },
                {
                    "name": "_addedValue",
                    "type": "uint256"
                }
            ],
            "name": "increaseApproval",
            "outputs": [
                {
                    "name": "",
                    "type": "bool"
                }
            ],
            "payable": false,
            "stateMutability": "nonpayable",
            "type": "function",
            "signature": "0xd73dd623"
        },
        {
            "constant": true,
            "inputs": [
                {
                    "name": "_owner",
                    "type": "address"
                },
                {
                    "name": "_spender",
                    "type": "address"
                }
            ],
            "name": "allowance",
            "outputs": [
                {
                    "name": "",
                    "type": "uint256"
                }
            ],
            "payable": false,
            "stateMutability": "view",
            "type": "function",
            "signature": "0xdd62ed3e"
        },
        {
            "constant": true,
            "inputs": [],
            "name": "miner3ETH",
            "outputs": [
                {
                    "name": "",
                    "type": "uint256"
                }
            ],
            "payable": false,
            "stateMutability": "view",
            "type": "function",
            "signature": "0xfa8785dc"
        },
        {
            "constant": true,
            "inputs": [],
            "name": "GASPRICE",
            "outputs": [
                {
                    "name": "",
                    "type": "uint256"
                }
            ],
            "payable": false,
            "stateMutability": "view",
            "type": "function",
            "signature": "0xff138a9e"
        },
        {
            "constant": true,
            "inputs": [],
            "name": "miner2ETH",
            "outputs": [
                {
                    "name": "",
                    "type": "uint256"
                }
            ],
            "payable": false,
            "stateMutability": "view",
            "type": "function",
            "signature": "0xff47821b"
        },
        {
            "inputs": [
                {
                    "name": "_dividend",
                    "type": "address"
                }
            ],
            "payable": false,
            "stateMutability": "nonpayable",
            "type": "constructor",
            "signature": "constructor"
        },
        {
            "payable": true,
            "stateMutability": "payable",
            "type": "fallback"
        },
        {
            "anonymous": false,
            "inputs": [
                {
                    "indexed": true,
                    "name": "owner",
                    "type": "address"
                },
                {
                    "indexed": true,
                    "name": "spender",
                    "type": "address"
                },
                {
                    "indexed": false,
                    "name": "value",
                    "type": "uint256"
                }
            ],
            "name": "Approval",
            "type": "event",
            "signature": "0x8c5be1e5ebec7d5bd14f71427d1e84f3dd0314c0f7b2291e5b200ac8c7c3b925"
        },
        {
            "anonymous": false,
            "inputs": [
                {
                    "indexed": true,
                    "name": "from",
                    "type": "address"
                },
                {
                    "indexed": true,
                    "name": "to",
                    "type": "address"
                },
                {
                    "indexed": false,
                    "name": "value",
                    "type": "uint256"
                }
            ],
            "name": "Transfer",
            "type": "event",
            "signature": "0xddf252ad1be2c89b69c2b068fc378daa952ba7f163c4a11628f55a4df523b3ef"
        },
        {
            "constant": false,
            "inputs": [
                {
                    "name": "_running",
                    "type": "bool"
                }
            ],
            "name": "setRunning",
            "outputs": [],
            "payable": false,
            "stateMutability": "nonpayable",
            "type": "function",
            "signature": "0xdfd200c5"
        },
        {
            "constant": false,
            "inputs": [
                {
                    "name": "_addr",
                    "type": "address"
                }
            ],
            "name": "changeOwner",
            "outputs": [],
            "payable": false,
            "stateMutability": "nonpayable",
            "type": "function",
            "signature": "0xa6f9dae1"
        },
        {
            "constant": false,
            "inputs": [
                {
                    "name": "_ticket",
                    "type": "uint256"
                }
            ],
            "name": "setTicket",
            "outputs": [
                {
                    "name": "",
                    "type": "bool"
                }
            ],
            "payable": false,
            "stateMutability": "nonpayable",
            "type": "function",
            "signature": "0xa38018f6"
        },
        {
            "constant": false,
            "inputs": [
                {
                    "name": "_addr",
                    "type": "address"
                }
            ],
            "name": "setSelfAddr",
            "outputs": [],
            "payable": false,
            "stateMutability": "nonpayable",
            "type": "function",
            "signature": "0x652d5077"
        },
        {
            "constant": true,
            "inputs": [],
            "name": "getTicket",
            "outputs": [
                {
                    "name": "",
                    "type": "uint256"
                }
            ],
            "payable": false,
            "stateMutability": "view",
            "type": "function",
            "signature": "0xc002c4d6"
        },
        {
            "constant": false,
            "inputs": [
                {
                    "name": "_index",
                    "type": "uint256"
                },
                {
                    "name": "_value",
                    "type": "uint256"
                }
            ],
            "name": "setMiner",
            "outputs": [],
            "payable": false,
            "stateMutability": "nonpayable",
            "type": "function",
            "signature": "0x29c93de2"
        },
        {
            "constant": false,
            "inputs": [
                {
                    "name": "_choice",
                    "type": "uint8"
                }
            ],
            "name": "withdraw",
            "outputs": [
                {
                    "name": "",
                    "type": "bool"
                }
            ],
            "payable": false,
            "stateMutability": "nonpayable",
            "type": "function",
            "signature": "0xc6ab5d90"
        },
        {
            "constant": false,
            "inputs": [
                {
                    "name": "_value",
                    "type": "uint256"
                }
            ],
            "name": "transferToStaticPool",
            "outputs": [],
            "payable": false,
            "stateMutability": "nonpayable",
            "type": "function",
            "signature": "0x5475e54a"
        },
        {
            "constant": false,
            "inputs": [],
            "name": "kill",
            "outputs": [],
            "payable": false,
            "stateMutability": "nonpayable",
            "type": "function",
            "signature": "0x41c0e1b5"
        }
    ],
    "bytecode": "0x60c0604052600860808190527f474846546f6b656e00000000000000000000000000000000000000000000000060a09081526200004091600391906200016d565b506040805180820190915260038082527f4748460000000000000000000000000000000000000000000000000000000000602090920191825262000087916004916200016d565b5060126005556a295be96e64066972000000600655610535600c556802b5e3af16b1880000600d5568056bc75e2d63100000600e55680821ab0d4414980000600f5560086010556011805460ff19169055348015620000e557600080fd5b5060405160208062001599833981018060405260208110156200010757600080fd5b505160065460018190553360008181526020819052604090209190915560088054600160a060020a03199081168317909155600780548216909217909155600a8054600160a060020a0390931692821683179055600b8054909116909117905562000212565b828054600181600116156101000203166002900490600052602060002090601f016020900481019282601f10620001b057805160ff1916838001178555620001e0565b82800160010185558215620001e0579182015b82811115620001e0578251825591602001919060010190620001c3565b50620001ee929150620001f2565b5090565b6200020f91905b80821115620001ee5760008155600101620001f9565b90565b61137780620002226000396000f3fe60806040526004361061017f5763ffffffff7c010000000000000000000000000000000000000000000000000000000060003504166306fdde03811461048a5780630754617214610514578063095ea7b31461054557806318160ddd146105925780632014e5d1146105b957806323b872dd146105ce57806329c93de2146106115780632ff2e9dc14610643578063313ce567146106585780633c9f861d1461066d57806341c0e1b5146106825780635475e54a146106975780635d8a3ca3146106c1578063652d5077146106d6578063661884631461070957806370a08231146107425780638da5cb5b1461077557806395d89b411461078a578063a38018f61461079f578063a6f9dae1146107c9578063a9059cbb146107fc578063ba752d4f14610835578063c002c4d61461084a578063c6ab5d901461085f578063d73dd6231461088c578063dd62ed3e146108c5578063dfd200c514610900578063fa8785dc1461092c578063ff138a9e14610941578063ff47821b14610956575b60115460ff16151560011461019357600080fd5b60006101aa600c543461096b90919063ffffffff16565b6007549091503390600160a060020a0316808214156101c857600080fd5b600160a060020a0381166000908152602081905260409020548311156101ed57600080fd5b600160a060020a038216151561020257600080fd5b600160a060020a03811660009081526020819052604090205461022b908463ffffffff61099a16565b600160a060020a038083166000908152602081905260408082209390935590841681522054610260908463ffffffff6109ac16565b600160a060020a038316600090815260208190526040902055600f54341061032157600b54604080517f90276dc7000000000000000000000000000000000000000000000000000000008152336004820152600360248201529051600160a060020a03909216916390276dc7916044808201926020929091908290030181600087803b1580156102ef57600080fd5b505af1158015610303573d6000803e3d6000fd5b505050506040513d602081101561031957600080fd5b5061043a9050565b600e54341061039757600b54604080517f90276dc7000000000000000000000000000000000000000000000000000000008152336004820152600260248201529051600160a060020a03909216916390276dc7916044808201926020929091908290030181600087803b1580156102ef57600080fd5b600d54341061043a57600b54604080517f90276dc7000000000000000000000000000000000000000000000000000000008152336004820152600160248201529051600160a060020a03909216916390276dc7916044808201926020929091908290030181600087803b15801561040d57600080fd5b505af1158015610421573d6000803e3d6000fd5b505050506040513d602081101561043757600080fd5b50505b81600160a060020a031681600160a060020a03167fddf252ad1be2c89b69c2b068fc378daa952ba7f163c4a11628f55a4df523b3ef856040518082815260200191505060405180910390a3505050005b34801561049657600080fd5b5061049f6109b9565b6040805160208082528351818301528351919283929083019185019080838360005b838110156104d95781810151838201526020016104c1565b50505050905090810190601f1680156105065780820380516001836020036101000a031916815260200191505b509250505060405180910390f35b34801561052057600080fd5b50610529610a47565b60408051600160a060020a039092168252519081900360200190f35b34801561055157600080fd5b5061057e6004803603604081101561056857600080fd5b50600160a060020a038135169060200135610a56565b604080519115158252519081900360200190f35b34801561059e57600080fd5b506105a7610abc565b60408051918252519081900360200190f35b3480156105c557600080fd5b5061057e610ac2565b3480156105da57600080fd5b5061057e600480360360608110156105f157600080fd5b50600160a060020a03813581169160208101359091169060400135610acb565b34801561061d57600080fd5b506106416004803603604081101561063457600080fd5b5080359060200135610c40565b005b34801561064f57600080fd5b506105a7610c79565b34801561066457600080fd5b506105a7610c7f565b34801561067957600080fd5b506105a7610c85565b34801561068e57600080fd5b50610641610c8b565b3480156106a357600080fd5b50610641600480360360208110156106ba57600080fd5b5035610cc5565b3480156106cd57600080fd5b506105a7610d2c565b3480156106e257600080fd5b50610641600480360360208110156106f957600080fd5b5035600160a060020a0316610d32565b34801561071557600080fd5b5061057e6004803603604081101561072c57600080fd5b50600160a060020a038135169060200135610d78565b34801561074e57600080fd5b506105a76004803603602081101561076557600080fd5b5035600160a060020a0316610e67565b34801561078157600080fd5b50610529610e82565b34801561079657600080fd5b5061049f610e91565b3480156107ab57600080fd5b5061057e600480360360208110156107c257600080fd5b5035610eec565b3480156107d557600080fd5b50610641600480360360208110156107ec57600080fd5b5035600160a060020a0316610f0f565b34801561080857600080fd5b5061057e6004803603604081101561081f57600080fd5b50600160a060020a038135169060200135610f55565b34801561084157600080fd5b50610529611034565b34801561085657600080fd5b506105a7611043565b34801561086b57600080fd5b5061057e6004803603602081101561088257600080fd5b503560ff16611049565b34801561089857600080fd5b5061057e600480360360408110156108af57600080fd5b50600160a060020a03813516906020013561124b565b3480156108d157600080fd5b506105a7600480360360408110156108e857600080fd5b50600160a060020a03813581169160200135166112e4565b34801561090c57600080fd5b506106416004803603602081101561092357600080fd5b5035151561130f565b34801561093857600080fd5b506105a7611339565b34801561094d57600080fd5b506105a761133f565b34801561096257600080fd5b506105a7611345565b600082151561097c57506000610994565b5081810281838281151561098c57fe5b041461099457fe5b92915050565b6000828211156109a657fe5b50900390565b8181018281101561099457fe5b6003805460408051602060026001851615610100026000190190941693909304601f81018490048402820184019092528181529291830182828015610a3f5780601f10610a1457610100808354040283529160200191610a3f565b820191906000526020600020905b815481529060010190602001808311610a2257829003601f168201915b505050505081565b600754600160a060020a031681565b336000818152600260209081526040808320600160a060020a038716808552908352818420869055815186815291519394909390927f8c5be1e5ebec7d5bd14f71427d1e84f3dd0314c0f7b2291e5b200ac8c7c3b925928290030190a350600192915050565b60015490565b60115460ff1681565b600160a060020a038316600090815260208190526040812054821115610af057600080fd5b600160a060020a0384166000908152600260209081526040808320338452909152902054821115610b2057600080fd5b600160a060020a0383161515610b3557600080fd5b600160a060020a038416600090815260208190526040902054610b5e908363ffffffff61099a16565b600160a060020a038086166000908152602081905260408082209390935590851681522054610b93908363ffffffff6109ac16565b600160a060020a03808516600090815260208181526040808320949094559187168152600282528281203382529091522054610bd5908363ffffffff61099a16565b600160a060020a03808616600081815260026020908152604080832033845282529182902094909455805186815290519287169391927fddf252ad1be2c89b69c2b068fc378daa952ba7f163c4a11628f55a4df523b3ef929181900390910190a35060019392505050565b8160011415610c5357600d819055610c75565b8160021415610c6657600e819055610c75565b8160031415610c7557600f8190555b5050565b60065481565b60055481565b60125481565b600854600160a060020a03163314610ca257600080fd5b600854600160a060020a0316331415610cc357600854600160a060020a0316ff5b565b600854600160a060020a03163314610cdc57600080fd5b600954600160a060020a0316318111610d2957600a54604051600160a060020a039091169082156108fc029083906000818181858888f19350505050158015610c75573d6000803e3d6000fd5b50565b600d5481565b600854600160a060020a03163314610d4957600080fd5b6009805473ffffffffffffffffffffffffffffffffffffffff1916600160a060020a0392909216919091179055565b336000908152600260209081526040808320600160a060020a0386168452909152812054808310610dcc57336000908152600260209081526040808320600160a060020a0388168452909152812055610e01565b610ddc818463ffffffff61099a16565b336000908152600260209081526040808320600160a060020a03891684529091529020555b336000818152600260209081526040808320600160a060020a0389168085529083529281902054815190815290519293927f8c5be1e5ebec7d5bd14f71427d1e84f3dd0314c0f7b2291e5b200ac8c7c3b925929181900390910190a35060019392505050565b600160a060020a031660009081526020819052604090205490565b600854600160a060020a031681565b6004805460408051602060026001851615610100026000190190941693909304601f81018490048402820184019092528181529291830182828015610a3f5780601f10610a1457610100808354040283529160200191610a3f565b600854600090600160a060020a03163314610f0657600080fd5b50600c55600190565b600854600160a060020a03163314610f2657600080fd5b6008805473ffffffffffffffffffffffffffffffffffffffff1916600160a060020a0392909216919091179055565b33600090815260208190526040812054821115610f7157600080fd5b600160a060020a0383161515610f8657600080fd5b33600090815260208190526040902054610fa6908363ffffffff61099a16565b3360009081526020819052604080822092909255600160a060020a03851681522054610fd8908363ffffffff6109ac16565b600160a060020a038416600081815260208181526040918290209390935580518581529051919233927fddf252ad1be2c89b69c2b068fc378daa952ba7f163c4a11628f55a4df523b3ef9281900390910190a350600192915050565b600954600160a060020a031681565b600c5490565b60115460009060ff16151560011461106057600080fd5b600b546040517f6741204500000000000000000000000000000000000000000000000000000000815233600482018181529092600092600160a060020a0390911691636741204591859188916024018260068111156110bb57fe5b60ff1681526020019250505060206040518083038186803b1580156110df57600080fd5b505afa1580156110f3573d6000803e3d6000fd5b505050506040513d602081101561110957600080fd5b5051600c54601054600160a060020a038516600090815260208190526040902054929350606490840204029081111561114157600080fd5b600754600160a060020a038481169116141561115c57600080fd5b600160a060020a038316600090815260208190526040902054611185908263ffffffff61099a16565b600160a060020a0380851660009081526020819052604090819020929092556012805484019055600b5491517f044641eb0000000000000000000000000000000000000000000000000000000081523360048201818152939092169263044641eb9291899187916024018360068111156111fb57fe5b60ff1681526020018281526020019350505050600060405180830381600087803b15801561122857600080fd5b505af115801561123c573d6000803e3d6000fd5b50600198975050505050505050565b336000908152600260209081526040808320600160a060020a038616845290915281205461127f908363ffffffff6109ac16565b336000818152600260209081526040808320600160a060020a0389168085529083529281902085905580519485525191937f8c5be1e5ebec7d5bd14f71427d1e84f3dd0314c0f7b2291e5b200ac8c7c3b925929081900390910190a350600192915050565b600160a060020a03918216600090815260026020908152604080832093909416825291909152205490565b600854600160a060020a0316331461132657600080fd5b6011805460ff1916911515919091179055565b600f5481565b60105481565b600e548156fea165627a7a7230582097dc4ae52c95783c3d3ad95cd75a041bbe7f81b6d541cfe97218f6dda25ed4860029",
    "sourcePath": "/Users/xhkj/Documents/proj/gameproj/ETHDapp/dapp/contracts/GHFToken.sol",
    "compiler": {
        "name": "solc",
        "version": "0.5.0+commit.1d4f565a.Emscripten.clang"
    },
    "schemaVersion": "3.0.1",
    "updatedAt": "2019-06-19T01:34:08.004Z",
    "devdoc": {
        "methods": {
            "allowance(address,address)": {
                "details": "Function to check the amount of tokens that an owner allowed to a spender.",
                "params": {
                    "_owner": "address The address which owns the funds.",
                    "_spender": "address The address which will spend the funds."
                },
                "return": "A uint256 specifying the amount of tokens still available for the spender."
            },
            "approve(address,uint256)": {
                "details": "Approve the passed address to spend the specified amount of tokens on behalf of msg.sender. Beware that changing an allowance with this method brings the risk that someone may use both the old and the new allowance by unfortunate transaction ordering. One possible solution to mitigate this race condition is to first reduce the spender's allowance to 0 and set the desired value afterwards: https://github.com/ethereum/EIPs/issues/20#issuecomment-263524729",
                "params": {
                    "_spender": "The address which will spend the funds.",
                    "_value": "The amount of tokens to be spent."
                }
            },
            "balanceOf(address)": {
                "details": "Gets the balance of the specified address.",
                "params": {
                    "_owner": "The address to query the the balance of."
                },
                "return": "An uint256 representing the amount owned by the passed address."
            },
            "decreaseApproval(address,uint256)": {
                "details": "Decrease the amount of tokens that an owner allowed to a spender. approve should be called when allowed[_spender] == 0. To decrement allowed value is better to use this function to avoid 2 calls (and wait until the first transaction is mined) From MonolithDAO Token.sol",
                "params": {
                    "_spender": "The address which will spend the funds.",
                    "_subtractedValue": "The amount of tokens to decrease the allowance by."
                }
            },
            "increaseApproval(address,uint256)": {
                "details": "Increase the amount of tokens that an owner allowed to a spender. approve should be called when allowed[_spender] == 0. To increment allowed value is better to use this function to avoid 2 calls (and wait until the first transaction is mined) From MonolithDAO Token.sol",
                "params": {
                    "_addedValue": "The amount of tokens to increase the allowance by.",
                    "_spender": "The address which will spend the funds."
                }
            },
            "totalSupply()": {
                "details": "Total number of tokens in existence"
            },
            "transfer(address,uint256)": {
                "details": "Transfer token for a specified address",
                "params": {
                    "_to": "The address to transfer to.",
                    "_value": "The amount to be transferred."
                }
            },
            "transferFrom(address,address,uint256)": {
                "details": "Transfer tokens from one address to another",
                "params": {
                    "_from": "address The address which you want to send tokens from",
                    "_to": "address The address which you want to transfer to",
                    "_value": "uint256 the amount of tokens to be transferred"
                }
            }
        }
    },
    "userdoc": {
        "methods": {}
    }
}